{
  "contracts/Crypto.sol": {
    "Crypto": {
      "abi": [
        {
          "inputs": [],
          "stateMutability": "nonpayable",
          "type": "constructor"
        },
        {
          "inputs": [
            {
              "internalType": "address",
              "name": "walletAddress",
              "type": "address"
            },
            {
              "internalType": "string",
              "name": "firstName",
              "type": "string"
            },
            {
              "internalType": "string",
              "name": "lastName",
              "type": "string"
            },
            {
              "internalType": "uint256",
              "name": "releaseTime",
              "type": "uint256"
            },
            {
              "internalType": "uint256",
              "name": "amount",
              "type": "uint256"
            },
            {
              "internalType": "bool",
              "name": "canWithdraw",
              "type": "bool"
            }
          ],
          "name": "addKid",
          "outputs": [],
          "stateMutability": "nonpayable",
          "type": "function"
        },
        {
          "inputs": [],
          "name": "balanceOf",
          "outputs": [
            {
              "internalType": "uint256",
              "name": "",
              "type": "uint256"
            }
          ],
          "stateMutability": "view",
          "type": "function"
        },
        {
          "inputs": [
            {
              "internalType": "address",
              "name": "walletAddress",
              "type": "address"
            }
          ],
          "name": "deposit",
          "outputs": [],
          "stateMutability": "payable",
          "type": "function"
        },
        {
          "inputs": [
            {
              "internalType": "uint256",
              "name": "",
              "type": "uint256"
            }
          ],
          "name": "kids",
          "outputs": [
            {
              "internalType": "address",
              "name": "walletAddress",
              "type": "address"
            },
            {
              "internalType": "string",
              "name": "firstName",
              "type": "string"
            },
            {
              "internalType": "string",
              "name": "lastName",
              "type": "string"
            },
            {
              "internalType": "uint256",
              "name": "releaseTime",
              "type": "uint256"
            },
            {
              "internalType": "uint256",
              "name": "amount",
              "type": "uint256"
            },
            {
              "internalType": "bool",
              "name": "canWithdraw",
              "type": "bool"
            }
          ],
          "stateMutability": "view",
          "type": "function"
        }
      ],
      "evm": {
        "bytecode": {
          "linkReferences": {},
          "object": "608060405234801561001057600080fd5b50336000806101000a81548173ffffffffffffffffffffffffffffffffffffffff021916908373ffffffffffffffffffffffffffffffffffffffff160217905550610cab806100606000396000f3fe60806040526004361061003f5760003560e01c806331d575c514610044578063722713f71461006d5780637285fd3a14610098578063f340fa01146100da575b600080fd5b34801561005057600080fd5b5061006b600480360381019061006691906106b0565b6100f6565b005b34801561007957600080fd5b50610082610217565b60405161008f9190610784565b60405180910390f35b3480156100a457600080fd5b506100bf60048036038101906100ba919061079f565b61021f565b6040516100d196959493929190610869565b60405180910390f35b6100f460048036038101906100ef91906108d8565b6103a8565b005b60016040518060c001604052808873ffffffffffffffffffffffffffffffffffffffff168152602001878152602001868152602001858152602001848152602001831515815250908060018154018082558091505060019003906000526020600020906006020160009091909190915060008201518160000160006101000a81548173ffffffffffffffffffffffffffffffffffffffff021916908373ffffffffffffffffffffffffffffffffffffffff16021790555060208201518160010190816101c29190610b11565b5060408201518160020190816101d89190610b11565b50606082015181600301556080820151816004015560a08201518160050160006101000a81548160ff0219169083151502179055505050505050505050565b600047905090565b6001818154811061022f57600080fd5b90600052602060002090600602016000915090508060000160009054906101000a900473ffffffffffffffffffffffffffffffffffffffff169080600101805461027890610934565b80601f01602080910402602001604051908101604052809291908181526020018280546102a490610934565b80156102f15780601f106102c6576101008083540402835291602001916102f1565b820191906000526020600020905b8154815290600101906020018083116102d457829003601f168201915b50505050509080600201805461030690610934565b80601f016020809104026020016040519081016040528092919081815260200182805461033290610934565b801561037f5780601f106103545761010080835404028352916020019161037f565b820191906000526020600020905b81548152906001019060200180831161036257829003601f168201915b5050505050908060030154908060040154908060050160009054906101000a900460ff16905086565b6103b1816103b4565b50565b60005b600180549050811015610486578173ffffffffffffffffffffffffffffffffffffffff16600182815481106103ef576103ee610be3565b5b906000526020600020906006020160000160009054906101000a900473ffffffffffffffffffffffffffffffffffffffff1673ffffffffffffffffffffffffffffffffffffffff160361047957346001828154811061045157610450610be3565b5b906000526020600020906006020160040160008282546104719190610c41565b925050819055505b80806001019150506103b7565b5050565b6000604051905090565b600080fd5b600080fd5b600073ffffffffffffffffffffffffffffffffffffffff82169050919050565b60006104c98261049e565b9050919050565b6104d9816104be565b81146104e457600080fd5b50565b6000813590506104f6816104d0565b92915050565b600080fd5b600080fd5b6000601f19601f8301169050919050565b7f4e487b7100000000000000000000000000000000000000000000000000000000600052604160045260246000fd5b61054f82610506565b810181811067ffffffffffffffff8211171561056e5761056d610517565b5b80604052505050565b600061058161048a565b905061058d8282610546565b919050565b600067ffffffffffffffff8211156105ad576105ac610517565b5b6105b682610506565b9050602081019050919050565b82818337600083830152505050565b60006105e56105e084610592565b610577565b90508281526020810184848401111561060157610600610501565b5b61060c8482856105c3565b509392505050565b600082601f830112610629576106286104fc565b5b81356106398482602086016105d2565b91505092915050565b6000819050919050565b61065581610642565b811461066057600080fd5b50565b6000813590506106728161064c565b92915050565b60008115159050919050565b61068d81610678565b811461069857600080fd5b50565b6000813590506106aa81610684565b92915050565b60008060008060008060c087890312156106cd576106cc610494565b5b60006106db89828a016104e7565b965050602087013567ffffffffffffffff8111156106fc576106fb610499565b5b61070889828a01610614565b955050604087013567ffffffffffffffff81111561072957610728610499565b5b61073589828a01610614565b945050606061074689828a01610663565b935050608061075789828a01610663565b92505060a061076889828a0161069b565b9150509295509295509295565b61077e81610642565b82525050565b60006020820190506107996000830184610775565b92915050565b6000602082840312156107b5576107b4610494565b5b60006107c384828501610663565b91505092915050565b6107d5816104be565b82525050565b600081519050919050565b600082825260208201905092915050565b60005b838110156108155780820151818401526020810190506107fa565b60008484015250505050565b600061082c826107db565b61083681856107e6565b93506108468185602086016107f7565b61084f81610506565b840191505092915050565b61086381610678565b82525050565b600060c08201905061087e60008301896107cc565b81810360208301526108908188610821565b905081810360408301526108a48187610821565b90506108b36060830186610775565b6108c06080830185610775565b6108cd60a083018461085a565b979650505050505050565b6000602082840312156108ee576108ed610494565b5b60006108fc848285016104e7565b91505092915050565b7f4e487b7100000000000000000000000000000000000000000000000000000000600052602260045260246000fd5b6000600282049050600182168061094c57607f821691505b60208210810361095f5761095e610905565b5b50919050565b60008190508160005260206000209050919050565b60006020601f8301049050919050565b600082821b905092915050565b6000600883026109c77fffffffffffffffffffffffffffffffffffffffffffffffffffffffffffffffff8261098a565b6109d1868361098a565b95508019841693508086168417925050509392505050565b6000819050919050565b6000610a0e610a09610a0484610642565b6109e9565b610642565b9050919050565b6000819050919050565b610a28836109f3565b610a3c610a3482610a15565b848454610997565b825550505050565b600090565b610a51610a44565b610a5c818484610a1f565b505050565b5b81811015610a8057610a75600082610a49565b600181019050610a62565b5050565b601f821115610ac557610a9681610965565b610a9f8461097a565b81016020851015610aae578190505b610ac2610aba8561097a565b830182610a61565b50505b505050565b600082821c905092915050565b6000610ae860001984600802610aca565b1980831691505092915050565b6000610b018383610ad7565b9150826002028217905092915050565b610b1a826107db565b67ffffffffffffffff811115610b3357610b32610517565b5b610b3d8254610934565b610b48828285610a84565b600060209050601f831160018114610b7b5760008415610b69578287015190505b610b738582610af5565b865550610bdb565b601f198416610b8986610965565b60005b82811015610bb157848901518255600182019150602085019450602081019050610b8c565b86831015610bce5784890151610bca601f891682610ad7565b8355505b6001600288020188555050505b505050505050565b7f4e487b7100000000000000000000000000000000000000000000000000000000600052603260045260246000fd5b7f4e487b7100000000000000000000000000000000000000000000000000000000600052601160045260246000fd5b6000610c4c82610642565b9150610c5783610642565b9250828201905080821115610c6f57610c6e610c12565b5b9291505056fea2646970667358221220c82dd19798df00d89a9820ba6e224c724c052a6918eba7c0cab5fb8df4ff638f64736f6c63430008180033",
          "opcodes": "PUSH1 0x80 PUSH1 0x40 MSTORE CALLVALUE DUP1 ISZERO PUSH2 0x10 JUMPI PUSH1 0x0 DUP1 REVERT JUMPDEST POP CALLER PUSH1 0x0 DUP1 PUSH2 0x100 EXP DUP2 SLOAD DUP2 PUSH20 0xFFFFFFFFFFFFFFFFFFFFFFFFFFFFFFFFFFFFFFFF MUL NOT AND SWAP1 DUP4 PUSH20 0xFFFFFFFFFFFFFFFFFFFFFFFFFFFFFFFFFFFFFFFF AND MUL OR SWAP1 SSTORE POP PUSH2 0xCAB DUP1 PUSH2 0x60 PUSH1 0x0 CODECOPY PUSH1 0x0 RETURN INVALID PUSH1 0x80 PUSH1 0x40 MSTORE PUSH1 0x4 CALLDATASIZE LT PUSH2 0x3F JUMPI PUSH1 0x0 CALLDATALOAD PUSH1 0xE0 SHR DUP1 PUSH4 0x31D575C5 EQ PUSH2 0x44 JUMPI DUP1 PUSH4 0x722713F7 EQ PUSH2 0x6D JUMPI DUP1 PUSH4 0x7285FD3A EQ PUSH2 0x98 JUMPI DUP1 PUSH4 0xF340FA01 EQ PUSH2 0xDA JUMPI JUMPDEST PUSH1 0x0 DUP1 REVERT JUMPDEST CALLVALUE DUP1 ISZERO PUSH2 0x50 JUMPI PUSH1 0x0 DUP1 REVERT JUMPDEST POP PUSH2 0x6B PUSH1 0x4 DUP1 CALLDATASIZE SUB DUP2 ADD SWAP1 PUSH2 0x66 SWAP2 SWAP1 PUSH2 0x6B0 JUMP JUMPDEST PUSH2 0xF6 JUMP JUMPDEST STOP JUMPDEST CALLVALUE DUP1 ISZERO PUSH2 0x79 JUMPI PUSH1 0x0 DUP1 REVERT JUMPDEST POP PUSH2 0x82 PUSH2 0x217 JUMP JUMPDEST PUSH1 0x40 MLOAD PUSH2 0x8F SWAP2 SWAP1 PUSH2 0x784 JUMP JUMPDEST PUSH1 0x40 MLOAD DUP1 SWAP2 SUB SWAP1 RETURN JUMPDEST CALLVALUE DUP1 ISZERO PUSH2 0xA4 JUMPI PUSH1 0x0 DUP1 REVERT JUMPDEST POP PUSH2 0xBF PUSH1 0x4 DUP1 CALLDATASIZE SUB DUP2 ADD SWAP1 PUSH2 0xBA SWAP2 SWAP1 PUSH2 0x79F JUMP JUMPDEST PUSH2 0x21F JUMP JUMPDEST PUSH1 0x40 MLOAD PUSH2 0xD1 SWAP7 SWAP6 SWAP5 SWAP4 SWAP3 SWAP2 SWAP1 PUSH2 0x869 JUMP JUMPDEST PUSH1 0x40 MLOAD DUP1 SWAP2 SUB SWAP1 RETURN JUMPDEST PUSH2 0xF4 PUSH1 0x4 DUP1 CALLDATASIZE SUB DUP2 ADD SWAP1 PUSH2 0xEF SWAP2 SWAP1 PUSH2 0x8D8 JUMP JUMPDEST PUSH2 0x3A8 JUMP JUMPDEST STOP JUMPDEST PUSH1 0x1 PUSH1 0x40 MLOAD DUP1 PUSH1 0xC0 ADD PUSH1 0x40 MSTORE DUP1 DUP9 PUSH20 0xFFFFFFFFFFFFFFFFFFFFFFFFFFFFFFFFFFFFFFFF AND DUP2 MSTORE PUSH1 0x20 ADD DUP8 DUP2 MSTORE PUSH1 0x20 ADD DUP7 DUP2 MSTORE PUSH1 0x20 ADD DUP6 DUP2 MSTORE PUSH1 0x20 ADD DUP5 DUP2 MSTORE PUSH1 0x20 ADD DUP4 ISZERO ISZERO DUP2 MSTORE POP SWAP1 DUP1 PUSH1 0x1 DUP2 SLOAD ADD DUP1 DUP3 SSTORE DUP1 SWAP2 POP POP PUSH1 0x1 SWAP1 SUB SWAP1 PUSH1 0x0 MSTORE PUSH1 0x20 PUSH1 0x0 KECCAK256 SWAP1 PUSH1 0x6 MUL ADD PUSH1 0x0 SWAP1 SWAP2 SWAP1 SWAP2 SWAP1 SWAP2 POP PUSH1 0x0 DUP3 ADD MLOAD DUP2 PUSH1 0x0 ADD PUSH1 0x0 PUSH2 0x100 EXP DUP2 SLOAD DUP2 PUSH20 0xFFFFFFFFFFFFFFFFFFFFFFFFFFFFFFFFFFFFFFFF MUL NOT AND SWAP1 DUP4 PUSH20 0xFFFFFFFFFFFFFFFFFFFFFFFFFFFFFFFFFFFFFFFF AND MUL OR SWAP1 SSTORE POP PUSH1 0x20 DUP3 ADD MLOAD DUP2 PUSH1 0x1 ADD SWAP1 DUP2 PUSH2 0x1C2 SWAP2 SWAP1 PUSH2 0xB11 JUMP JUMPDEST POP PUSH1 0x40 DUP3 ADD MLOAD DUP2 PUSH1 0x2 ADD SWAP1 DUP2 PUSH2 0x1D8 SWAP2 SWAP1 PUSH2 0xB11 JUMP JUMPDEST POP PUSH1 0x60 DUP3 ADD MLOAD DUP2 PUSH1 0x3 ADD SSTORE PUSH1 0x80 DUP3 ADD MLOAD DUP2 PUSH1 0x4 ADD SSTORE PUSH1 0xA0 DUP3 ADD MLOAD DUP2 PUSH1 0x5 ADD PUSH1 0x0 PUSH2 0x100 EXP DUP2 SLOAD DUP2 PUSH1 0xFF MUL NOT AND SWAP1 DUP4 ISZERO ISZERO MUL OR SWAP1 SSTORE POP POP POP POP POP POP POP POP POP JUMP JUMPDEST PUSH1 0x0 SELFBALANCE SWAP1 POP SWAP1 JUMP JUMPDEST PUSH1 0x1 DUP2 DUP2 SLOAD DUP2 LT PUSH2 0x22F JUMPI PUSH1 0x0 DUP1 REVERT JUMPDEST SWAP1 PUSH1 0x0 MSTORE PUSH1 0x20 PUSH1 0x0 KECCAK256 SWAP1 PUSH1 0x6 MUL ADD PUSH1 0x0 SWAP2 POP SWAP1 POP DUP1 PUSH1 0x0 ADD PUSH1 0x0 SWAP1 SLOAD SWAP1 PUSH2 0x100 EXP SWAP1 DIV PUSH20 0xFFFFFFFFFFFFFFFFFFFFFFFFFFFFFFFFFFFFFFFF AND SWAP1 DUP1 PUSH1 0x1 ADD DUP1 SLOAD PUSH2 0x278 SWAP1 PUSH2 0x934 JUMP JUMPDEST DUP1 PUSH1 0x1F ADD PUSH1 0x20 DUP1 SWAP2 DIV MUL PUSH1 0x20 ADD PUSH1 0x40 MLOAD SWAP1 DUP2 ADD PUSH1 0x40 MSTORE DUP1 SWAP3 SWAP2 SWAP1 DUP2 DUP2 MSTORE PUSH1 0x20 ADD DUP3 DUP1 SLOAD PUSH2 0x2A4 SWAP1 PUSH2 0x934 JUMP JUMPDEST DUP1 ISZERO PUSH2 0x2F1 JUMPI DUP1 PUSH1 0x1F LT PUSH2 0x2C6 JUMPI PUSH2 0x100 DUP1 DUP4 SLOAD DIV MUL DUP4 MSTORE SWAP2 PUSH1 0x20 ADD SWAP2 PUSH2 0x2F1 JUMP JUMPDEST DUP3 ADD SWAP2 SWAP1 PUSH1 0x0 MSTORE PUSH1 0x20 PUSH1 0x0 KECCAK256 SWAP1 JUMPDEST DUP2 SLOAD DUP2 MSTORE SWAP1 PUSH1 0x1 ADD SWAP1 PUSH1 0x20 ADD DUP1 DUP4 GT PUSH2 0x2D4 JUMPI DUP3 SWAP1 SUB PUSH1 0x1F AND DUP3 ADD SWAP2 JUMPDEST POP POP POP POP POP SWAP1 DUP1 PUSH1 0x2 ADD DUP1 SLOAD PUSH2 0x306 SWAP1 PUSH2 0x934 JUMP JUMPDEST DUP1 PUSH1 0x1F ADD PUSH1 0x20 DUP1 SWAP2 DIV MUL PUSH1 0x20 ADD PUSH1 0x40 MLOAD SWAP1 DUP2 ADD PUSH1 0x40 MSTORE DUP1 SWAP3 SWAP2 SWAP1 DUP2 DUP2 MSTORE PUSH1 0x20 ADD DUP3 DUP1 SLOAD PUSH2 0x332 SWAP1 PUSH2 0x934 JUMP JUMPDEST DUP1 ISZERO PUSH2 0x37F JUMPI DUP1 PUSH1 0x1F LT PUSH2 0x354 JUMPI PUSH2 0x100 DUP1 DUP4 SLOAD DIV MUL DUP4 MSTORE SWAP2 PUSH1 0x20 ADD SWAP2 PUSH2 0x37F JUMP JUMPDEST DUP3 ADD SWAP2 SWAP1 PUSH1 0x0 MSTORE PUSH1 0x20 PUSH1 0x0 KECCAK256 SWAP1 JUMPDEST DUP2 SLOAD DUP2 MSTORE SWAP1 PUSH1 0x1 ADD SWAP1 PUSH1 0x20 ADD DUP1 DUP4 GT PUSH2 0x362 JUMPI DUP3 SWAP1 SUB PUSH1 0x1F AND DUP3 ADD SWAP2 JUMPDEST POP POP POP POP POP SWAP1 DUP1 PUSH1 0x3 ADD SLOAD SWAP1 DUP1 PUSH1 0x4 ADD SLOAD SWAP1 DUP1 PUSH1 0x5 ADD PUSH1 0x0 SWAP1 SLOAD SWAP1 PUSH2 0x100 EXP SWAP1 DIV PUSH1 0xFF AND SWAP1 POP DUP7 JUMP JUMPDEST PUSH2 0x3B1 DUP2 PUSH2 0x3B4 JUMP JUMPDEST POP JUMP JUMPDEST PUSH1 0x0 JUMPDEST PUSH1 0x1 DUP1 SLOAD SWAP1 POP DUP2 LT ISZERO PUSH2 0x486 JUMPI DUP2 PUSH20 0xFFFFFFFFFFFFFFFFFFFFFFFFFFFFFFFFFFFFFFFF AND PUSH1 0x1 DUP3 DUP2 SLOAD DUP2 LT PUSH2 0x3EF JUMPI PUSH2 0x3EE PUSH2 0xBE3 JUMP JUMPDEST JUMPDEST SWAP1 PUSH1 0x0 MSTORE PUSH1 0x20 PUSH1 0x0 KECCAK256 SWAP1 PUSH1 0x6 MUL ADD PUSH1 0x0 ADD PUSH1 0x0 SWAP1 SLOAD SWAP1 PUSH2 0x100 EXP SWAP1 DIV PUSH20 0xFFFFFFFFFFFFFFFFFFFFFFFFFFFFFFFFFFFFFFFF AND PUSH20 0xFFFFFFFFFFFFFFFFFFFFFFFFFFFFFFFFFFFFFFFF AND SUB PUSH2 0x479 JUMPI CALLVALUE PUSH1 0x1 DUP3 DUP2 SLOAD DUP2 LT PUSH2 0x451 JUMPI PUSH2 0x450 PUSH2 0xBE3 JUMP JUMPDEST JUMPDEST SWAP1 PUSH1 0x0 MSTORE PUSH1 0x20 PUSH1 0x0 KECCAK256 SWAP1 PUSH1 0x6 MUL ADD PUSH1 0x4 ADD PUSH1 0x0 DUP3 DUP3 SLOAD PUSH2 0x471 SWAP2 SWAP1 PUSH2 0xC41 JUMP JUMPDEST SWAP3 POP POP DUP2 SWAP1 SSTORE POP JUMPDEST DUP1 DUP1 PUSH1 0x1 ADD SWAP2 POP POP PUSH2 0x3B7 JUMP JUMPDEST POP POP JUMP JUMPDEST PUSH1 0x0 PUSH1 0x40 MLOAD SWAP1 POP SWAP1 JUMP JUMPDEST PUSH1 0x0 DUP1 REVERT JUMPDEST PUSH1 0x0 DUP1 REVERT JUMPDEST PUSH1 0x0 PUSH20 0xFFFFFFFFFFFFFFFFFFFFFFFFFFFFFFFFFFFFFFFF DUP3 AND SWAP1 POP SWAP2 SWAP1 POP JUMP JUMPDEST PUSH1 0x0 PUSH2 0x4C9 DUP3 PUSH2 0x49E JUMP JUMPDEST SWAP1 POP SWAP2 SWAP1 POP JUMP JUMPDEST PUSH2 0x4D9 DUP2 PUSH2 0x4BE JUMP JUMPDEST DUP2 EQ PUSH2 0x4E4 JUMPI PUSH1 0x0 DUP1 REVERT JUMPDEST POP JUMP JUMPDEST PUSH1 0x0 DUP2 CALLDATALOAD SWAP1 POP PUSH2 0x4F6 DUP2 PUSH2 0x4D0 JUMP JUMPDEST SWAP3 SWAP2 POP POP JUMP JUMPDEST PUSH1 0x0 DUP1 REVERT JUMPDEST PUSH1 0x0 DUP1 REVERT JUMPDEST PUSH1 0x0 PUSH1 0x1F NOT PUSH1 0x1F DUP4 ADD AND SWAP1 POP SWAP2 SWAP1 POP JUMP JUMPDEST PUSH32 0x4E487B7100000000000000000000000000000000000000000000000000000000 PUSH1 0x0 MSTORE PUSH1 0x41 PUSH1 0x4 MSTORE PUSH1 0x24 PUSH1 0x0 REVERT JUMPDEST PUSH2 0x54F DUP3 PUSH2 0x506 JUMP JUMPDEST DUP2 ADD DUP2 DUP2 LT PUSH8 0xFFFFFFFFFFFFFFFF DUP3 GT OR ISZERO PUSH2 0x56E JUMPI PUSH2 0x56D PUSH2 0x517 JUMP JUMPDEST JUMPDEST DUP1 PUSH1 0x40 MSTORE POP POP POP JUMP JUMPDEST PUSH1 0x0 PUSH2 0x581 PUSH2 0x48A JUMP JUMPDEST SWAP1 POP PUSH2 0x58D DUP3 DUP3 PUSH2 0x546 JUMP JUMPDEST SWAP2 SWAP1 POP JUMP JUMPDEST PUSH1 0x0 PUSH8 0xFFFFFFFFFFFFFFFF DUP3 GT ISZERO PUSH2 0x5AD JUMPI PUSH2 0x5AC PUSH2 0x517 JUMP JUMPDEST JUMPDEST PUSH2 0x5B6 DUP3 PUSH2 0x506 JUMP JUMPDEST SWAP1 POP PUSH1 0x20 DUP2 ADD SWAP1 POP SWAP2 SWAP1 POP JUMP JUMPDEST DUP3 DUP2 DUP4 CALLDATACOPY PUSH1 0x0 DUP4 DUP4 ADD MSTORE POP POP POP JUMP JUMPDEST PUSH1 0x0 PUSH2 0x5E5 PUSH2 0x5E0 DUP5 PUSH2 0x592 JUMP JUMPDEST PUSH2 0x577 JUMP JUMPDEST SWAP1 POP DUP3 DUP2 MSTORE PUSH1 0x20 DUP2 ADD DUP5 DUP5 DUP5 ADD GT ISZERO PUSH2 0x601 JUMPI PUSH2 0x600 PUSH2 0x501 JUMP JUMPDEST JUMPDEST PUSH2 0x60C DUP5 DUP3 DUP6 PUSH2 0x5C3 JUMP JUMPDEST POP SWAP4 SWAP3 POP POP POP JUMP JUMPDEST PUSH1 0x0 DUP3 PUSH1 0x1F DUP4 ADD SLT PUSH2 0x629 JUMPI PUSH2 0x628 PUSH2 0x4FC JUMP JUMPDEST JUMPDEST DUP2 CALLDATALOAD PUSH2 0x639 DUP5 DUP3 PUSH1 0x20 DUP7 ADD PUSH2 0x5D2 JUMP JUMPDEST SWAP2 POP POP SWAP3 SWAP2 POP POP JUMP JUMPDEST PUSH1 0x0 DUP2 SWAP1 POP SWAP2 SWAP1 POP JUMP JUMPDEST PUSH2 0x655 DUP2 PUSH2 0x642 JUMP JUMPDEST DUP2 EQ PUSH2 0x660 JUMPI PUSH1 0x0 DUP1 REVERT JUMPDEST POP JUMP JUMPDEST PUSH1 0x0 DUP2 CALLDATALOAD SWAP1 POP PUSH2 0x672 DUP2 PUSH2 0x64C JUMP JUMPDEST SWAP3 SWAP2 POP POP JUMP JUMPDEST PUSH1 0x0 DUP2 ISZERO ISZERO SWAP1 POP SWAP2 SWAP1 POP JUMP JUMPDEST PUSH2 0x68D DUP2 PUSH2 0x678 JUMP JUMPDEST DUP2 EQ PUSH2 0x698 JUMPI PUSH1 0x0 DUP1 REVERT JUMPDEST POP JUMP JUMPDEST PUSH1 0x0 DUP2 CALLDATALOAD SWAP1 POP PUSH2 0x6AA DUP2 PUSH2 0x684 JUMP JUMPDEST SWAP3 SWAP2 POP POP JUMP JUMPDEST PUSH1 0x0 DUP1 PUSH1 0x0 DUP1 PUSH1 0x0 DUP1 PUSH1 0xC0 DUP8 DUP10 SUB SLT ISZERO PUSH2 0x6CD JUMPI PUSH2 0x6CC PUSH2 0x494 JUMP JUMPDEST JUMPDEST PUSH1 0x0 PUSH2 0x6DB DUP10 DUP3 DUP11 ADD PUSH2 0x4E7 JUMP JUMPDEST SWAP7 POP POP PUSH1 0x20 DUP8 ADD CALLDATALOAD PUSH8 0xFFFFFFFFFFFFFFFF DUP2 GT ISZERO PUSH2 0x6FC JUMPI PUSH2 0x6FB PUSH2 0x499 JUMP JUMPDEST JUMPDEST PUSH2 0x708 DUP10 DUP3 DUP11 ADD PUSH2 0x614 JUMP JUMPDEST SWAP6 POP POP PUSH1 0x40 DUP8 ADD CALLDATALOAD PUSH8 0xFFFFFFFFFFFFFFFF DUP2 GT ISZERO PUSH2 0x729 JUMPI PUSH2 0x728 PUSH2 0x499 JUMP JUMPDEST JUMPDEST PUSH2 0x735 DUP10 DUP3 DUP11 ADD PUSH2 0x614 JUMP JUMPDEST SWAP5 POP POP PUSH1 0x60 PUSH2 0x746 DUP10 DUP3 DUP11 ADD PUSH2 0x663 JUMP JUMPDEST SWAP4 POP POP PUSH1 0x80 PUSH2 0x757 DUP10 DUP3 DUP11 ADD PUSH2 0x663 JUMP JUMPDEST SWAP3 POP POP PUSH1 0xA0 PUSH2 0x768 DUP10 DUP3 DUP11 ADD PUSH2 0x69B JUMP JUMPDEST SWAP2 POP POP SWAP3 SWAP6 POP SWAP3 SWAP6 POP SWAP3 SWAP6 JUMP JUMPDEST PUSH2 0x77E DUP2 PUSH2 0x642 JUMP JUMPDEST DUP3 MSTORE POP POP JUMP JUMPDEST PUSH1 0x0 PUSH1 0x20 DUP3 ADD SWAP1 POP PUSH2 0x799 PUSH1 0x0 DUP4 ADD DUP5 PUSH2 0x775 JUMP JUMPDEST SWAP3 SWAP2 POP POP JUMP JUMPDEST PUSH1 0x0 PUSH1 0x20 DUP3 DUP5 SUB SLT ISZERO PUSH2 0x7B5 JUMPI PUSH2 0x7B4 PUSH2 0x494 JUMP JUMPDEST JUMPDEST PUSH1 0x0 PUSH2 0x7C3 DUP5 DUP3 DUP6 ADD PUSH2 0x663 JUMP JUMPDEST SWAP2 POP POP SWAP3 SWAP2 POP POP JUMP JUMPDEST PUSH2 0x7D5 DUP2 PUSH2 0x4BE JUMP JUMPDEST DUP3 MSTORE POP POP JUMP JUMPDEST PUSH1 0x0 DUP2 MLOAD SWAP1 POP SWAP2 SWAP1 POP JUMP JUMPDEST PUSH1 0x0 DUP3 DUP3 MSTORE PUSH1 0x20 DUP3 ADD SWAP1 POP SWAP3 SWAP2 POP POP JUMP JUMPDEST PUSH1 0x0 JUMPDEST DUP4 DUP2 LT ISZERO PUSH2 0x815 JUMPI DUP1 DUP3 ADD MLOAD DUP2 DUP5 ADD MSTORE PUSH1 0x20 DUP2 ADD SWAP1 POP PUSH2 0x7FA JUMP JUMPDEST PUSH1 0x0 DUP5 DUP5 ADD MSTORE POP POP POP POP JUMP JUMPDEST PUSH1 0x0 PUSH2 0x82C DUP3 PUSH2 0x7DB JUMP JUMPDEST PUSH2 0x836 DUP2 DUP6 PUSH2 0x7E6 JUMP JUMPDEST SWAP4 POP PUSH2 0x846 DUP2 DUP6 PUSH1 0x20 DUP7 ADD PUSH2 0x7F7 JUMP JUMPDEST PUSH2 0x84F DUP2 PUSH2 0x506 JUMP JUMPDEST DUP5 ADD SWAP2 POP POP SWAP3 SWAP2 POP POP JUMP JUMPDEST PUSH2 0x863 DUP2 PUSH2 0x678 JUMP JUMPDEST DUP3 MSTORE POP POP JUMP JUMPDEST PUSH1 0x0 PUSH1 0xC0 DUP3 ADD SWAP1 POP PUSH2 0x87E PUSH1 0x0 DUP4 ADD DUP10 PUSH2 0x7CC JUMP JUMPDEST DUP2 DUP2 SUB PUSH1 0x20 DUP4 ADD MSTORE PUSH2 0x890 DUP2 DUP9 PUSH2 0x821 JUMP JUMPDEST SWAP1 POP DUP2 DUP2 SUB PUSH1 0x40 DUP4 ADD MSTORE PUSH2 0x8A4 DUP2 DUP8 PUSH2 0x821 JUMP JUMPDEST SWAP1 POP PUSH2 0x8B3 PUSH1 0x60 DUP4 ADD DUP7 PUSH2 0x775 JUMP JUMPDEST PUSH2 0x8C0 PUSH1 0x80 DUP4 ADD DUP6 PUSH2 0x775 JUMP JUMPDEST PUSH2 0x8CD PUSH1 0xA0 DUP4 ADD DUP5 PUSH2 0x85A JUMP JUMPDEST SWAP8 SWAP7 POP POP POP POP POP POP POP JUMP JUMPDEST PUSH1 0x0 PUSH1 0x20 DUP3 DUP5 SUB SLT ISZERO PUSH2 0x8EE JUMPI PUSH2 0x8ED PUSH2 0x494 JUMP JUMPDEST JUMPDEST PUSH1 0x0 PUSH2 0x8FC DUP5 DUP3 DUP6 ADD PUSH2 0x4E7 JUMP JUMPDEST SWAP2 POP POP SWAP3 SWAP2 POP POP JUMP JUMPDEST PUSH32 0x4E487B7100000000000000000000000000000000000000000000000000000000 PUSH1 0x0 MSTORE PUSH1 0x22 PUSH1 0x4 MSTORE PUSH1 0x24 PUSH1 0x0 REVERT JUMPDEST PUSH1 0x0 PUSH1 0x2 DUP3 DIV SWAP1 POP PUSH1 0x1 DUP3 AND DUP1 PUSH2 0x94C JUMPI PUSH1 0x7F DUP3 AND SWAP2 POP JUMPDEST PUSH1 0x20 DUP3 LT DUP2 SUB PUSH2 0x95F JUMPI PUSH2 0x95E PUSH2 0x905 JUMP JUMPDEST JUMPDEST POP SWAP2 SWAP1 POP JUMP JUMPDEST PUSH1 0x0 DUP2 SWAP1 POP DUP2 PUSH1 0x0 MSTORE PUSH1 0x20 PUSH1 0x0 KECCAK256 SWAP1 POP SWAP2 SWAP1 POP JUMP JUMPDEST PUSH1 0x0 PUSH1 0x20 PUSH1 0x1F DUP4 ADD DIV SWAP1 POP SWAP2 SWAP1 POP JUMP JUMPDEST PUSH1 0x0 DUP3 DUP3 SHL SWAP1 POP SWAP3 SWAP2 POP POP JUMP JUMPDEST PUSH1 0x0 PUSH1 0x8 DUP4 MUL PUSH2 0x9C7 PUSH32 0xFFFFFFFFFFFFFFFFFFFFFFFFFFFFFFFFFFFFFFFFFFFFFFFFFFFFFFFFFFFFFFFF DUP3 PUSH2 0x98A JUMP JUMPDEST PUSH2 0x9D1 DUP7 DUP4 PUSH2 0x98A JUMP JUMPDEST SWAP6 POP DUP1 NOT DUP5 AND SWAP4 POP DUP1 DUP7 AND DUP5 OR SWAP3 POP POP POP SWAP4 SWAP3 POP POP POP JUMP JUMPDEST PUSH1 0x0 DUP2 SWAP1 POP SWAP2 SWAP1 POP JUMP JUMPDEST PUSH1 0x0 PUSH2 0xA0E PUSH2 0xA09 PUSH2 0xA04 DUP5 PUSH2 0x642 JUMP JUMPDEST PUSH2 0x9E9 JUMP JUMPDEST PUSH2 0x642 JUMP JUMPDEST SWAP1 POP SWAP2 SWAP1 POP JUMP JUMPDEST PUSH1 0x0 DUP2 SWAP1 POP SWAP2 SWAP1 POP JUMP JUMPDEST PUSH2 0xA28 DUP4 PUSH2 0x9F3 JUMP JUMPDEST PUSH2 0xA3C PUSH2 0xA34 DUP3 PUSH2 0xA15 JUMP JUMPDEST DUP5 DUP5 SLOAD PUSH2 0x997 JUMP JUMPDEST DUP3 SSTORE POP POP POP POP JUMP JUMPDEST PUSH1 0x0 SWAP1 JUMP JUMPDEST PUSH2 0xA51 PUSH2 0xA44 JUMP JUMPDEST PUSH2 0xA5C DUP2 DUP5 DUP5 PUSH2 0xA1F JUMP JUMPDEST POP POP POP JUMP JUMPDEST JUMPDEST DUP2 DUP2 LT ISZERO PUSH2 0xA80 JUMPI PUSH2 0xA75 PUSH1 0x0 DUP3 PUSH2 0xA49 JUMP JUMPDEST PUSH1 0x1 DUP2 ADD SWAP1 POP PUSH2 0xA62 JUMP JUMPDEST POP POP JUMP JUMPDEST PUSH1 0x1F DUP3 GT ISZERO PUSH2 0xAC5 JUMPI PUSH2 0xA96 DUP2 PUSH2 0x965 JUMP JUMPDEST PUSH2 0xA9F DUP5 PUSH2 0x97A JUMP JUMPDEST DUP2 ADD PUSH1 0x20 DUP6 LT ISZERO PUSH2 0xAAE JUMPI DUP2 SWAP1 POP JUMPDEST PUSH2 0xAC2 PUSH2 0xABA DUP6 PUSH2 0x97A JUMP JUMPDEST DUP4 ADD DUP3 PUSH2 0xA61 JUMP JUMPDEST POP POP JUMPDEST POP POP POP JUMP JUMPDEST PUSH1 0x0 DUP3 DUP3 SHR SWAP1 POP SWAP3 SWAP2 POP POP JUMP JUMPDEST PUSH1 0x0 PUSH2 0xAE8 PUSH1 0x0 NOT DUP5 PUSH1 0x8 MUL PUSH2 0xACA JUMP JUMPDEST NOT DUP1 DUP4 AND SWAP2 POP POP SWAP3 SWAP2 POP POP JUMP JUMPDEST PUSH1 0x0 PUSH2 0xB01 DUP4 DUP4 PUSH2 0xAD7 JUMP JUMPDEST SWAP2 POP DUP3 PUSH1 0x2 MUL DUP3 OR SWAP1 POP SWAP3 SWAP2 POP POP JUMP JUMPDEST PUSH2 0xB1A DUP3 PUSH2 0x7DB JUMP JUMPDEST PUSH8 0xFFFFFFFFFFFFFFFF DUP2 GT ISZERO PUSH2 0xB33 JUMPI PUSH2 0xB32 PUSH2 0x517 JUMP JUMPDEST JUMPDEST PUSH2 0xB3D DUP3 SLOAD PUSH2 0x934 JUMP JUMPDEST PUSH2 0xB48 DUP3 DUP3 DUP6 PUSH2 0xA84 JUMP JUMPDEST PUSH1 0x0 PUSH1 0x20 SWAP1 POP PUSH1 0x1F DUP4 GT PUSH1 0x1 DUP2 EQ PUSH2 0xB7B JUMPI PUSH1 0x0 DUP5 ISZERO PUSH2 0xB69 JUMPI DUP3 DUP8 ADD MLOAD SWAP1 POP JUMPDEST PUSH2 0xB73 DUP6 DUP3 PUSH2 0xAF5 JUMP JUMPDEST DUP7 SSTORE POP PUSH2 0xBDB JUMP JUMPDEST PUSH1 0x1F NOT DUP5 AND PUSH2 0xB89 DUP7 PUSH2 0x965 JUMP JUMPDEST PUSH1 0x0 JUMPDEST DUP3 DUP2 LT ISZERO PUSH2 0xBB1 JUMPI DUP5 DUP10 ADD MLOAD DUP3 SSTORE PUSH1 0x1 DUP3 ADD SWAP2 POP PUSH1 0x20 DUP6 ADD SWAP5 POP PUSH1 0x20 DUP2 ADD SWAP1 POP PUSH2 0xB8C JUMP JUMPDEST DUP7 DUP4 LT ISZERO PUSH2 0xBCE JUMPI DUP5 DUP10 ADD MLOAD PUSH2 0xBCA PUSH1 0x1F DUP10 AND DUP3 PUSH2 0xAD7 JUMP JUMPDEST DUP4 SSTORE POP JUMPDEST PUSH1 0x1 PUSH1 0x2 DUP9 MUL ADD DUP9 SSTORE POP POP POP JUMPDEST POP POP POP POP POP POP JUMP JUMPDEST PUSH32 0x4E487B7100000000000000000000000000000000000000000000000000000000 PUSH1 0x0 MSTORE PUSH1 0x32 PUSH1 0x4 MSTORE PUSH1 0x24 PUSH1 0x0 REVERT JUMPDEST PUSH32 0x4E487B7100000000000000000000000000000000000000000000000000000000 PUSH1 0x0 MSTORE PUSH1 0x11 PUSH1 0x4 MSTORE PUSH1 0x24 PUSH1 0x0 REVERT JUMPDEST PUSH1 0x0 PUSH2 0xC4C DUP3 PUSH2 0x642 JUMP JUMPDEST SWAP2 POP PUSH2 0xC57 DUP4 PUSH2 0x642 JUMP JUMPDEST SWAP3 POP DUP3 DUP3 ADD SWAP1 POP DUP1 DUP3 GT ISZERO PUSH2 0xC6F JUMPI PUSH2 0xC6E PUSH2 0xC12 JUMP JUMPDEST JUMPDEST SWAP3 SWAP2 POP POP JUMP INVALID LOG2 PUSH5 0x6970667358 0x22 SLT KECCAK256 0xC8 0x2D 0xD1 SWAP8 SWAP9 0xDF STOP 0xD8 SWAP11 SWAP9 KECCAK256 0xBA PUSH15 0x224C724C052A6918EBA7C0CAB5FB8D DELEGATECALL SELFDESTRUCT PUSH4 0x8F64736F PUSH13 0x63430008180033000000000000 "
        },
        "methodIdentifiers": {
          "addKid(address,string,string,uint256,uint256,bool)": "31d575c5",
          "balanceOf()": "722713f7",
          "deposit(address)": "f340fa01",
          "kids(uint256)": "7285fd3a"
        }
      }
    }
  }
}